:10000000F32040F1172200901302B2FF137102FF98
:10001000970100909381017FB722000093820280B4
:10002000739002301703000013030318731053304A
:100030007310403097130000938383671704009078
:10004000130444FC970400909384C4FB17050090AC
:10005000130545FB97050090938505FB13060000EB
:100060009306000013070000930700001308000028
:10007000930800001309000093090000130A000010
:10008000930A0000130B0000930B0000130C0000F8
:10009000930C0000130D0000930D0000130E0000E0
:1000A000930E0000130F0000930F0000638A0002FC
:1000B000970700009387870173905730736044302F
:1000C000736004306F00800D3747F4FF0321870011
:1000D0000326C7003707F4FF232207006F00C0057F
:1000E000638E8300635C940083A703002320F400E5
:1000F00093834300130444006FF0DFFE6358B500A0
:1001000023200500130545006FF05FFF1714000062
:10011000130484359714000093840435635A9400C3
:1001200083200400E7800000130444006FF01FFFE9
:1001300017160000130646E9970100909381816C21
:100140000F00F00F0F100000739002301305000035
:1001500093050000E700060073104030731005346B
:10016000170500001305450473105530732440F142
:1001700063140402171400001304042F97140000E2
:100180009384842E635A940083200400E780000047
:10019000130444006FF01FFF730010007300501031
:1001A0006FF0DFFF73100434732420341354F40110
:1001B00063160402732410341304440073101434BF
:1001C0007324A034137434001304D4FF63080400B0
:1001D000732410341304E4FF7310143473240034B4
:1001E00073002030B707FEFF03A58700B7070100A3
:1001F0003375F50067800000B7C7F4FF83A5C7FF1C
:1002000003A587FF03A7C7FFE39AE5FE6780000009
:10021000F32740F13747F4FF93973700B387E700A0
:100220001307F0FF23A0E70023A2B70023A0A70035
:1002300067800000B707FEFF03A58700B7870000AF
:100240003375F500678000003707FCFF8326470001
:10025000930710003395A7003345D5002322A7004C
:1002600067800000B707FCFF23A2A700678000009B
:10027000B707FEFF03A58700B70704003375F50035
:1002800067800000B707F000131616003377F700F9
:1002900013762600939565003366E60093F5053CDA
:1002A000131535003366B600137585039396260043
:1002B0003366A60093F64600B707F8FF3366D6000C
:1002C00023A007001366160023A0C7006780000064
:1002D0003707F8FF832707009396C700E3CC06FE95
:1002E0009377750093878700B7060080B3E7D70040
:1002F0002322F700678000003707F8FF83270700F5
:100300009396C700E3CC06FEB70700802322F700D0
:1003100067800000B707F8FF23A2A70003A7070024
:10032000E34E07FE03A547001375F50F6780000035
:10033000B707F5FF6308F5023707F6FF93070000DC
:100340006306E5001385070067800000B707FEFF1E
:1003500083A7870037050002B3F7A70013850700BE
:1003600067800000B707FEFF83A7870037050200FC
:10037000B3F7A7001385070067800000130101FF92
:10038000232481002322910023261100B707FEFFBA
:10039000232005009304050003A50700939515008D
:1003A00013040600EF1040019307E03F130700001D
:1003B00063FCA7029306E03F6F0000011355150090
:1003C0001307170063FEA6009307E7FF93F7D7FF15
:1003D000E39607FE1355350013071700E3E6A6FE64
:1003E00013173700137787011305F5FFB7070100CF
:1003F000131565009387F7FF3706C0073374C400F1
:100400003375F500336585008320C1000324810026
:100410003365E5001365150023A0A4008324410083
:100420001301010167800000832705001397A700CF
:10043000E35C07FE2322B50067800000032505006A
:10044000B70700803375F50067800000832705003B
:100450001397F700E35C07FE03254500131585019C
:10046000135585416780000003250500B70701008B
:100470003375F500678000000325450013158501DD
:100480001355854167800000130101FF23261100E9
:1004900023248100EFF0DFDD93071000631C0500CB
:1004A0008320C1000324810013850700130101018B
:1004B0006780000013050000EFF09FE11305B00A0C
:1004C000EFF05FE5EFF05FE313050000EFF05FE0B2
:1004D00013056000EFF01FE4EFF01FE213050000CA
:1004E000EFF01FDF13055000EFF0DFE2130500000F
:1004F000EFF05FE213040500EFF01FE01375240036
:100500009307F0FFE30E05F813050000EFF05FDC42
:1005100013054000EFF01FE0EFF01FDE13050000B1
:10052000EFF01FDB13055000EFF0DFDE13050000D6
:10053000EFF05FDE13040500EFF01FDC9317E4011A
:100540008320C1000324810093D7F741138507005E
:100550001301010167800000130101FF23248100C2
:100560001304050013050000232611002322910027
:100570002320210113890500EFF09FD513053000DA
:10058000EFF05FD9135504011375F50FEFF09FD805
:10059000135584001375F50FEFF0DFD71375F40FC3
:1005A000EFF05FD713050000EFF0DFD693040500EE
:1005B0003704FFFF13051000EFF0DFD51304F40F2D
:1005C0009317850033F48400130520003364F4008E
:1005D000EFF05FD4B70701FF9387F7FF3374F400A0
:1005E000131505013364A40013053000EFF09FD20A
:1005F000931784001315850193D7870033E4A70070
:10060000EFF09FCF8320C1002320890003248100C5
:100610008324410003290100130500001301010197
:1006200067800000130101FD2324810223202103A0
:10063000232E3101232611022322910213090500E2
:100640002326B10093094500130405001307C100D8
:10065000B3072441B307F7001305000083C4070064
:10066000EFF01FC713056000EFF0DFCAEFF0DFC83F
:1006700013050000EFF0DFC513052000EFF09FC960
:10068000135504011375F50FEFF0DFC813558400FF
:100690001375F50FEFF01FC81375F40FEFF09FC738
:1006A00013850400EFF01FC7EFF01FC5130500000E
:1006B000EFF01FC213055000EFF0DFC51305000077
:1006C000EFF05FC593040500EFF01FC313F51400AE
:1006D000E31E05FC13041400E31A34F78320C1025F
:1006E0000324810283244102032901028329C101D9
:1006F0001301010367800000130101FF232481001F
:10070000130405001305000023261100EFF05FBC61
:1007100013056000EFF01FC0EFF01FBE13050000CF
:10072000EFF01FBB1305800DEFF0DFBE1355040182
:100730001375F50FEFF01FBE135584001375F50FF9
:10074000EFF05FBD1375F40FEFF0DFBCEFF0DFBA31
:1007500013050000EFF0DFB713055000EFF09FBB6B
:1007600013050000EFF01FBB13040500EFF0DFB826
:1007700013751400E31E05FC8320C10003248100CF
:10078000130101016780000013051000678000005D
:10079000130101FF3705F5FF23261100EFF05FB9C4
:1007A000631805008320C100130101016780000068
:1007B0008320C1003705F5FF130101016FF01FC948
:1007C000130101FF23248100130405003705F5FF01
:1007D00023261100EFF0DFB5630205029307A000A6
:1007E0006306F40293050400032481008320C10002
:1007F0003705F5FF130101016FF01FC38320C1000E
:100800000324810013010101678000009305D000DB
:100810003705F5FFEFF05FC1930504000324810065
:100820008320C1003705F5FF130101016FF0DFBF21
:10083000130101FF232611002324810023229100AC
:100840002320210183040500638A04021304150098
:100850001309A0003705F5FF13041400EFF05FAD96
:10086000630A050063882403938504003705F5FFB8
:10087000EFF09FBB8304F4FFE39E04FC8320C100E0
:100880000324810083244100032901001301010195
:10089000678000009305D0003705F5FFEFF0DFB863
:1008A0006FF09FFC130101FE23244101130A050090
:1008B0003705F5FF232E1100232C8100232A9100F8
:1008C000232821012326310123225101EFF05FA6C5
:1008D00063080500930500033705F5FFEFF0DFB46B
:1008E0003705F5FFEFF0DFA46308050093058007E7
:1008F0003705F5FFEFF05FB31304C001971900004F
:10090000938989B6930AA0001309C0FFB3578A00E0
:1009100093F7F700B387F9003705F5FF83840700E5
:10092000EFF01FA11304C4FF630A0500638C540396
:10093000938504003705F5FFEFF01FAFE31824FDA2
:100940008320C10103248101832441010329010182
:100950008329C100032A8100832A41001301010277
:10096000678000009305D0003705F5FFEFF0DFAB9F
:100970006FF01FFC130101FE232C8100232A91003C
:1009800023282101232E1100130905001304C1009F
:10099000930401013705F5FFEFF09F99631A0502F3
:1009A0002300040013041400E31694FE8327C100FF
:1009B0008320C101032481012320F9008324410104
:1009C00003290101130500001301010267800000E3
:1009D0003705F5FFEFF09FA72300A40013041400D0
:1009E000E39A84FA6FF09FFC130101FB23261104A4
:1009F000232451042322610423207104232E810225
:100A0000232CA102232AB1022328C1022326D102CA
:100A10002324E1022322F10223200103232E1101CA
:100A2000232CC101232AD1012328E1012326F1012E
:100A300073242034B7070080938777006306F4029D
:100A40003705F5FFEFF0DF8E63160508930780008A
:100A500073B00730EFF00FFE6316050673005010F9
:100A6000730050106FF09FFFEFF0CFFC631C050A7E
:100A7000EFF04FF7631E050A0324C1038320C1046E
:100A8000832281040323410483230104032581037A
:100A900083254103032601038326C1020327810224
:100AA00083274102032801028328C101032E81010B
:100AB000832E4101032F0101832FC1001301010582
:100AC0007300203013051000EFF0CFF973005010C1
:100AD0006FF01FF9171500001305059AEFF05FD5A9
:100AE00013050400EFF01FDC13050002EFF05FCDEB
:100AF00073251034EFF01FDB13050002EFF05FCC1D
:100B00007325A034EFF01FDA13050002EFF05FCB7E
:100B100073253034EFF01FD91305A000EFF05FCA42
:100B20006FF0DFF213050000EFF00FF26FF05FF4EB
:100B3000EFF08FECB707FEFF83A7070093D72700DE
:100B40003385A700B337F500B385B700EFF04FEC5E
:100B50006FF09FF2130101FD1715000013050593B7
:100B60002326110223248102232291022320210320
:100B7000232E3101232C410197F7FF8F23A407482F
:100B8000EFF01FCB37054000EFF0DFD11715000065
:100B9000130505B0EFF0DFC9EFF01F8F2320010030
:100BA0002322010023240100630E050223260100F5
:100BB0001715000013058590EFF09FC7130910006B
:100BC0008320C1020324810213050900832441020A
:100BD000032901028329C101032A810113010103B1
:100BE000678000009305010037054000EFF0DF96B5
:100BF0003704400093054100130905001305440024
:100C0000EFF09F9593040500930581001305840080
:100C1000EFF09F9403270100B7D788479387E7AF8A
:100C20006318F70A03274100B3E4240123260100D7
:100C30009359270033E9A400638A0904E31A09F6EB
:100C400093040000930900001304C400370AC0FF96
:100C50006F008000E31E09F4130504009305C10032
:100C6000EFF09F8F8327C10003274100B3068A005E
:100C700023AAF6FE93841400935627001309050057
:100C8000B389F90013044400E3E6D4FCE31209F24B
:100C900083278100B389F9006392090217150000C8
:100CA0001305C58397F7FF8F23AEE734EFF05FB8E6
:100CB0000F00F00F0F1000006FF09FF017150000ED
:100CC0001305C580EFF0DFB6130910006FF05FEF7A
:100CD000170500001305457DEFF09FB513091000BF
:100CE0006FF01FEE130101FE232A9100930405000B
:100CF0001715000013054596232E1100232C8100A3
:100D000023282101232631012324410117F4FF8FD9
:100D10001304442FEFF0DFB103250400EFF09FB878
:100D2000171500001305C593EFF09FB0930710004F
:100D30006384F40A1715000013054594EFF05FAFC4
:100D40001705000013058575EFF09FAE1305000031
:100D5000EFF05FB51715000013058591EFF05FAD5B
:100D6000EFF01FA3930790076302F5028320C101F0
:100D70000324810183244101032901018329C10046
:100D8000032A81001301010267800000171500008B
:100D90001305858FEFF0DFA903290400630C090E0A
:100DA00093072000638EF40E9307000083A70700CB
:100DB0001705000013058570032481018320C101FC
:100DC00083244101032901018329C100032A8100F1
:100DD000130101026FF0DFA5171500001305058947
:100DE000EFF01FA5170500001305456BEFF05FA49A
:100DF00037054000EFF01FAB1715000013054587BE
:100E0000EFF01FA3EFF0DF9893079007E310F5F6DC
:100E10001715000013054587EFF09FA1EFF0CFE60F
:100E200013090500E31605F883592400B7044000B0
:100E3000370A010093891904939909011385040065
:100E4000EFF09F8BB38444013369A900E39834FF2A
:100E50008329040063820910370A400093090000C7
:100E600093040000130ACA00E31409F403A9040060
:100E70003385440193050900EFF0CFFA832704007E
:100E800093844400B389290163F8F408E30005FE64
:100E90006FF01FF293072000E39CF4F06F008003D3
:100EA000130900009304000083A904001385C40003
:100EB00093850900EFF05F8D83270400938444003D
:100EC0003309390163F6F400E30005FE6FF05FEECD
:100ED000E31005EEB7D588479385E5AF130500000D
:100EE000EFF09F8A8325040093040500130540005A
:100EF000EFF09F89B3649500B3052041130580008E
:100F0000EFF09F8833659500E31405EA17050000AC
:100F10001305C55C6FF05FEAB3093041E31A05E8D9
:100F2000B7D588479385E5AF37054000EFF08FEFE1
:100F30008325040037094000930405001305490088
:100F4000EFF04FEEB3649500938509001305890017
:100F5000EFF04FED6FF01FFBE30409FC6FF05FE56E
:100F6000130101FF232611009307800073B007309F
:100F70001705000013054572EFF09F8B1305000065
:100F8000EFF05F921705000013050572EFF05F8A1E
:100F9000EFF04FAA631205023705F5FFEFF00FCA15
:100FA000E31C05FEB7270000938707807390073086
:100FB000731015347300203013050000EFF08FAA72
:100FC0006FF09FFD97070000938747A273905730FB
:100FD000EFF00FAA6310053AEFF0CFA563160538BE
:100FE0003705F5FFEFF0CFB463140536EFF08F9FB0
:100FF000630C0502B7C7F4FF23AC07FE23AC07FE62
:10100000B707FEFF83A707003747F4FF93D72700F2
:101010002320F7002322070093070008739047302E
:101020009307800073A00730170500001305454B98
:10103000EFF01F80732530F1EFF0DF861705000019
:101040001305054DEFF0CFFE3704FEFF0325040026
:10105000EFF05F85170500001305054CEFF04FFD1D
:1010600073251030EFF01F84170500001305454B62
:10107000EFF00FFC732500FCEFF0DF821705000096
:101080001305854AEFF0CFFA03258400930410007E
:10109000EFF05F811705000013058549EFF04FF968
:1010A000034544003395A4001375C5FFEFF08FFF8F
:1010B0001705000013054548EFF08FF7034554006E
:1010C0003395A4001375C5FFEFF0CFFD17050000A1
:1010D0001305854AEFF0CFF51705000013054546C7
:1010E000EFF00FF5EFF00F90630C0504170500000B
:1010F0001305C545EFF0CFF3EFF00F900327040081
:1011000093172700B387E70093971700B384A700CE
:10111000B3B7F4003384B7003705F5FFEFF04FA104
:10112000630805003705F5FFEFF00FB463120526DD
:10113000EFF08F8CE3E285FE6314B400E36E95FC60
:101140001705000013058556EFF08FEEEFF09FA016
:10115000630805181705000013050548B7DA884726
:10116000EFF00FED970900009389494117FAFF8FBF
:10117000130A4AE9938AEAAF13850900EFF04FEBAF
:10118000EFF00FE113040500EFF08FE31305A0006B
:10119000EFF00FE3930720076308F420930780061E
:1011A000630AF40293075007630EF40293073007B3
:1011B0006302F4149307C0066308F41493075006FF
:1011C000630AF40E93074006631EF41073001000C8
:1011D0006FF09FFA1705000013050540EFF04FE58B
:1011E0006FF09FF9170500001305C53997F7FF8FBA
:1011F00023AA07E0EFF0CFE313050100232001004D
:101200002322010023240100EFF0CFF69304050010
:1012100013054100EFF00FF61304050013058100DC
:10122000EFF04FF5832701006394570F0327410028
:101230003364940023260100135927003365A4006A
:101240006302090493040000130400001309000062
:10125000630805006F00C00C938444006312050C02
:101260001305C100EFF00FF18327C10003274100F0
:101270001304140023A0F400935627003309F90047
:10128000E36CD4FC631E0508832781003309F90051
:101290006318090A170500001305452497F7FF8F07
:1012A00023A2E7D6EFF0CFD80F00F00F0F10000009
:1012B0006FF09FEC83270A00639407021705000074
:1012C0001305452EEFF0CFD6170500001305852E28
:1012D000EFF00FD6EFF0CFCB93079007E31EF5E8C2
:1012E000EFF01FC8170500001305052EEFF04FD4CF
:1012F0006FF09FE883270A00638C07021305100034
:10130000EFF05F9E6FF05FE7EFF0DF846FF0DFE6F6
:101310001705000013054519EFF08FD16FF0DFE5D9
:101320001705000013058519EFF08FD06FF0DFE48B
:101330001705000013050527EFF08FCF6FF0DFE3EF
:101340001705000013058518EFF08FCE6FF0DFE270
:10135000B755000013060000938505B03705F5FF6B
:10136000EFF0CF816FF09FC813051000EFE09FEF03
:101370006FF01FC71307000093060000130600005C
:101380009305000013053000EFE0DFEF6FF0DFC4DE
:101390003705F5FFEFF04F8E170500001305451DCB
:1013A000EFF00FC96FF01FDBB702E0FF67800200AC
:1013B0006340050663C60506138605009305050010
:1013C0001305F0FF630C060293061000637AB60063
:1013D0006358C0001316160093961600E36AB6FE13
:1013E0001305000063E6C500B385C5403365D5002D
:1013F00093D6160013561600E39606FE678000008B
:1014000093820000EFF05FFB138505006780020008
:101410003305A04063D80500B305B0406FF0DFF995
:10142000B305B04093820000EFF01FF93305A040F0
:10143000678002009382000063CA0500634C0500C8
:10144000EFF09FF71385050067800200B305B040F9
:10145000E35805FE3305A040EFF01FF63305B0401A
:04146000678002009F
:101464003031323334353637383961626364656616
:10147400070A4552524F525F455843455054494F0D
:101484004E2000004C6F6164696E672066726F6D58
:101494002053504920666C617368204000000000AE
:1014A4004552524F525F5349474E41545552450A93
:1014B400000000004552524F525F4445564943458F
:1014C4000A0000004552524F525F434845434B5374
:1014D400554D0A004F4B0A000A0A0A4E454F525610
:1014E400333220426F6F746C6F616465720A0A4212
:1014F4004C44563A204A756C20313720323032350C
:101504000A4857563A2020000A434C4B3A20200000
:101514000A4D4953413A20000A584953413A2000A0
:101524000A534F433A2020000A494D454D3A2000C2
:101534000A444D454D3A20004175746F2D626F6F1A
:101544007400000020696E203130732E20507265C3
:10155400737320616E79206B657920746F206162EA
:101564006F72742E0A00000041626F727465642EFB
:101574000A0A0000434D443A3E2000004177616965
:1015840074696E67206E656F727633325F65786555
:101594002E62696E2E2E2E20000000004E6F2065F4
:1015A400786563757461626C652E0A00426F6F74AE
:1015B40020616E797761792028792F6E293F0A009E
:1015C400496E76616C696420434D440A0000000052
:1015D400417661696C61626C6520434D44733A0ADB
:1015E40020683A2048656C700A20723A205265736C
:1015F400746172740A20753A2055706C6F616420AE
:1016040076696120554152540A20733A2053746F0D
:10161400726520746F2053504920666C6173680AA8
:10162400206C3A204C6F61642066726F6D205350B9
:101634004920666C6173680A20653A2053746172AC
:10164400742065786563757461626C650A000000D6
:101654005772697465200000206279746573207480
:101664006F200000535049002028792F6E293F0A2B
:101674000000000054574920307841300000000039
:10168400466C617368696E672E2E2E200000000080
:10169400426F6F74696E672066726F6D2000000080
:0816A4002E2E2E0A0A000000A0
:04000005F000000007
:00000001FF
